:020000040000FA
:10000000021800021803090C09112202180B0B3701
:020010000B41A2
:070013000218132BDE0AF1B5
:07001B0002181B0B05421344
:0700230002182312298222BA
:07002B0002182BE4FFE1CAFB
:060033000218337F0722D2
:06003B0002183B022EE753
:0E004300021843A24D92352202184B022F3BA9
:0F005300021853A24E92382202185B75C8202261
:06006300021863023E508A
:07006B0002186B75ED042281
:10007300021873412C990041073500C135C138413D
:10008300073400E002020000383CE0020200022FC5
:10009300ECE00402000446524545E0010200155419
:1000A300E001020016A5E0E8022568FEFEFEFEFE62
:1000B300FEFEFEFEFEFEFEFEFEFEFEFEFEFEFEFE5D
:1000C300FEFEFEFEFEFEFEFEFEFEFEFEFEFEFEFE4D
:1000D300FEFEFEFEFEFEFEFEFEFEFEFEFEFEFEFE3D
:1000E300FEFEFEFEFEFEFEFEFEFEFEFEFEFEFEFE2D
:1000F300FEFEFEFEFEFEFEFEFEFEFEFEFEFEFEFE1D
:10010300FEFEFEFEFEFEFEFEFEFEFEFEFEFEFEFE0C
:10011300FEFEFEFEFEFEFEFEFEFEFEFEFEFEFEFEFC
:10012300FEFEFEFEFEFEFEFEFEFEFEFEFEFEFEFEEC
:10013300FEFEFEFEFEFEFEFEFEFEFEFEFEFEFEFEDC
:10014300FEFEFEFEFEFEFEFEFEFEFEFEFEFEFEFECC
:10015300FEFEFEFEFEFEFEFEFEFEFEFEFEFEFEFEBC
:10016300FEFEFEFEFEFEFEFEFEFEFEFEFEFEFEFEAC
:10017300FEFEFEFEFEFEFEFEFEFEFEFEFEFEFEFE9C
:10018300FEFEFEFEFEFEFEFEFEFEFEFEFEFEFEFE8C
:10019300FEFEFEE001022650FFE0010226A828E051
:1001A30001022FBBFFE005022FE92FEC02043D41C2
:1001B30003EB060114004103EA014103E801C13DD9
:1001C3000119000117004129790041291A055D2B06
:1001D300A300000000000000000000000000000079
:1001E3000000000000000000000000000000C14308
:1001F3004327EE00000041280200C111C134014031
:1002030000C130C131C13241305400C167432C11A8
:10021300000000412C1000412C1400412DD3FFC1DC
:1002230039C13BC146412C3800015500C128C126C4
:10023300412C2A00412C3700602826170522000094
:1002430000030008F6877788CF7FC04FFBDFFDE010
:100253006700008000808680BA05E87300800F0085
:1002630000600000412165004121780041216800C0
:100273004121610141216B024121630141239D0021
:10028300C1AA412169114121620041239A00C14A57
:10029300C14B41298A964129860FE002022FEE00C5
:1002A30033E00502301C0033040522E00202302152
:1002B3000807E0050238230807050522412DB1FF91
:1002C300412DAAFF412DAD00412DB000C16DE002CB
:1002D3000238280013E00C02382A00000308000348
:1002E30000080522043DE0050238360013FF05220D
:1002F300E00202383B00000075819075FF03759E94
:1003030002120820021892020418900076E47E017B
:100313009360F4A3FF543F30E509541FFEE493A315
:1003230060010ECF54E0B4E00EEFFAEEF9A3A3A3FD
:10033300A3DAFDD9FB80D654C025E0604B5026E4F8
:1003430093A3F85407240CC8C333C4540F4420C8E0
:10035300834004F456800146F6DFE480B0010204D2
:100363000810204080E493A3FAE493A3F8E493A352
:10037300C8C582C8CAC583CAF0A3C8C582C8CAC5CE
:1003830083CADFE9DEE78085E493A3F8E493A3401F
:1003930003F68001F208DFF4020310C2D5E830E768
:1003A3000FB2D5E4C39BFBE49AFAE499F9E498F815
:1003B300EC30E717B2D51203D4121116E4C39BFB3A
:1003C300E49AFAE499F9E498F8800312111630D507
:1003D3000DE4C39FFFE49EFEE49DFDE49CFC2278B4
:1003E30090E4F6D8FD9000007F007E10E4F0A3DFD8
:1003F300FCDEFA903064A3E583C394204011FEAF82
:10040300829020000E0FE48002F0A3DFFCDEFA12DC
:10041300082002030D2232EF900423939008007307
:100423000A20364CE556FF22EFF556220948094DBE
:1004330009520957095C0961096609700975097A46
:10044300097F098E0993099D09A709BBDB1D09C50E
:100453000A150A1A0A1F0A240A290A2E0A330A3815
:100463000A470A510A650A6A0A6F0A7E0A830ABFA3
:100473000AC40AC909040000020A00000007058231
:100483000220000007050202200000090401000108
:1004930002020100052400100105240100010424C7
:1004A30002000524060001070581030800200C95BE
:1004B3000C9A0C9F0CA40CA90CAE0CB30CB80CBD7D
:1004C3000CC20CC70CCC0CD10CD60CDB0CE00CE52D
:1004D3000CEA0CEF0CF40CF90CFE0D030D080000F4
:1004E300000000000C180C220C270C2C0C310C36CD
:0D04F3000C400C4A0C4F0C6D0C72AFEF2248
:100508001201000202000008580600020000000064
:10051800000109020000000100803204030409A25E
:1005280080CACF0998445CAD550641469503860BB1
:100538007800000000000500000600000010000020
:100548002428800000242080000011382100004465
:1005580028800000442080000034382100003F2417
:100568001E16110E0B09070504030201F0C8A79116
:1005780077676046383532302422201400010102A2
:100588000203030404050506060707000D33B0003F
:100598000D33B000000000020C00013F3F3F04048F
:1005A80004404040000000005A2D57617665203411
:1005B8002E363100822D1C16131110100BB40BE1CE
:1005C8000BE60BEB000301020604050D3A0D3F0D87
:1005D800447F01F1CA902C91E01213E6060004064C
:1005E8000814060D15061217062230062734062CA5
:1005F800360631370000061A533CEF853C80802FC1
:10060800533DEF8008533DDF8003533D7F853D9088
:10061800801D533EDF853EA08015533FFE800D535D
:100628003FEF8008533FBF8003533F7F853FB07F34
:100638000CDFFE227F01F1CA9030347401F0903053
:1006480034E0603EB1DD7F05D1DC903034EFF0124C
:10065800148AB1DD7FD7D1DC902C8CEFF0D1DE90FD
:100668002C8DEFF012148A903034E054011221706E
:1006780060CCA3E0F460C7EF30E7C3E4903034F017
:1006880080BCB1DD7F9FD1DC902C8EEFF0D1DE9065
:100698002C93EFF0D1DE902C94EFF0F1C5902C8CD8
:1006A800E0F4601BA3E0F46016902C93E0FD541F67
:1006B800240FA3F0EDC41354074480902C93F02228
:1006C80012122A78081211EAE4E5C820E7FB75FF40
:1006D800028F9122D1D17FFFD1D1E5C820E7FB75E8
:1006E800FF02AF91227F01F1CA304C17B1DD7F05BF
:1006F800D1DC903036EFF012148A903036E020E0EA
:1007080002C24C304C24B1DD7FD7D1DC902C8CEF69
:10071800F0D1DE902C8DEF122170600BA3E0F46015
:1007280006EF30E702C24C12148AE4FFF1CAA24C69
:10073800E433FF22902ED4121287F1F6F186902E20
:10074800D8E06F6037121772D1EDEF60051217818C
:1007580080F612147B122994122B5C6006F1F6784D
:1007680010D1CD902ED4D1C8F1F6E4D1D1902ED8A5
:10077800E0FFF1C3902C907401F0D322C322902E95
:10078800CF121287121772D1EDEF60051217818010
:10079800F6122B52600A902ECF12122A7810D1CD61
:1007A800902ECFD1C8902ECF12122AE4D1DC902EF1
:1007B800D3EFF0F1C5902ED3E0FF22D1D112148AE5
:1007C800E4FFEFB4010775FF02438F402275FF0273
:1007D800538FBF22902C8CE020E012B1D97F3DD1FD
:1007E800D17F2AD1D17F80D1D17FA6F1C322902E8B
:1007F800D402122A75ED0222C0567408C0E0C082E5
:10080800C08375560AE5FF54CF4490F5FF22C056C1
:100818007408C0E0C082C083755620E5FF54CF44F9
:1008280090F5FF22C0567408C0E0C082C083755698
:1008380036E5FF54CF44A0F5FF22C0567408C0E047
:10084800C082C08375564CE5FF54CF44B0F5FF22F3
:1008580090800001169098000116908088011690EB
:1008680080C7011690A827011690AFF3011690AF24
:10087800F6011690B03D011690B7F4011690B70135
:10088800011690B7F7011690C953011690C9560181
:100898001690A950011690C959011690B822011650
:1008A80090B404011690B069011690B49E01169098
:1008B800D07C011690B8D9011690D139011690D183
:1008C80054011690C784011690C486011690D83931
:1008D800011690D881011690A7CD011690A38B011F
:1008E8001690DFEF011690E013011690E03D011617
:1008F80090A2B9011690DA9B011690A5C90116902D
:10090800A253011690E073011690E08E011690C173
:1009180084011690E0E0011690D45E011690E80D6F
:10092800011690E2FB0116909BF4011690DAB601CD
:100938001690CC4F011690E896011690DC4E0116E1
:1009480090E93C011690EB880116909DAB0116903A
:10095800EB96011690ECBF011690E631011690E572
:1009680094011690E3EE011690ED0D011690EE65D8
:10097800011690E4B9011690EEEE011690BA6B01DB
:1009880016908153011690DFC00116909D7B0116C9
:1009980090BCC70116909FF0011690EF9301169036
:1009A8009FEB011690C09B011690D654011690D566
:1009B800CF011690DB0D011690DB21011690DFA206
:1009C800011690DB78011690EFCB011690D96A01D9
:1009D8001690D9E4011690EFE2011690EFFE011689
:1009E80090BE2A011690BA1C011690EE6E01169060
:1009F800EDEB011690EE5A011690EDA9011690EE56
:100A080083011690B7AF011690B7B5011690A08C68
:100A1800011690A165011690F006011690F04701A5
:100A28001690CBA2011690E455011690F0560116C7
:100A380090E601011690D8BA01169085D401169057
:100A4800BF18011690A6A80116909FA80116909F9E
:100A580068011690ECBA011690E522011690F12F64
:100A6800011690F13C011690818C011690EBE8017B
:100A78001690D6C9011690B760011690DDFA0116D6
:100A880090F15A011690DEDC011690F16E01169075
:100A9800F185011690F25F011690BDD3011690F210
:100AA80062011690F2AA011690AF19011690F2ADE4
:100AB800011690D953011690BF30011690DF7701C7
:100AC8001690DAD7011690A6B8011690A4FA011666
:100AD800909B72011690DD92011690DD3D011690F3
:100AE800CB6A011690C9AB011690F37F011690C42A
:100AF800AF011690D758011690A97D011690F4E61B
:100B0800011690F4F3011690E147011690E1AF0148
:100B18001690F503011690F534011690F555011657
:100B280090F573011690F60E011690F5C701169010
:100B3800F635011690C7E10116909649011690EB1B
:100B480075011690EAC3011690E94B011690EB4324
:100B5800011690C919011690C98B011690EB39013D
:100B68001690B7C5014290B14E014290B6180142A5
:100B780090B88A014290B15E014290BACF0142908A
:100B8800B56B014290BB41014290BC1D014290BD32
:100B980012014290BD74014290BD27014290BA3FB4
:100BA800014290BB93014290BD7A014290BD8701FA
:100BB8004290B104014290AE9A0142909470014271
:100BC80090BE1B014290A6A7014290A84401429002
:100BD80080000142908FFA014290BEE4014290BE2B
:100BE800FC0142909561014290BFAD014290BFC5A2
:100BF800014290C090014290B0720142909B510115
:100C08004290C170014290C17D014290B2E401421C
:100C180090C1F8014290AC84014290C20601429012
:100C2800AFF5014290AE3A014290C23C014290AC0D
:100C3800A7014290C221014290BB15014290AB1717
:100C4800014290C251014290C2A4014290AE660195
:100C58004290C300014290AD2D014290C35F014212
:100C680090C189014290C3BC014290A2AA0142905E
:100C7800AB95014290AE1B014290C479014290C1EC
:100C8800E2014290BCD6014290C559014290A0B3FE
:100C9800012C909CEA012C909D6E012C90A0BF0124
:100CA8002C90A0D8012C90A0E6012C90A0F8012C43
:100CB80090A104012C909BF4012C90A125012C906B
:100CC8009DC4012C909E72012C90A131012C909E04
:100CD800D5012C90A13D012C90A149012C909E1A80
:100CE800012C90A155012C90A179012C90A185018E
:100CF8002C90A19D012C908000012C90A1E1012C49
:100D080090A21E012C9082A3012C90A2F6012C9097
:100D1800A34D012C9080AF012C90990E012C909737
:100D280056012C9098C0012C909B93012C90A435CF
:100D3800012C90A5C9012C90A421012C909AFE01A8
:100D48002C00E709F608DFFA8046E709F208DFFA1F
:100D5800803E88828C83E709F0A3DFFA8032E309BA
:100D6800F608DFFA8078E309F208DFFA80708882F3
:100D78008C83E309F0A3DFFA806489828A83E0A385
:100D8800F608DFFA805889828A83E0A3F208DFFA3E
:100D9800804C80D280FA80C680D4806980F280330B
:100DA800801080A680EA809A80A880DA80E280CAD3
:100DB800803389828A83ECFAE493A3C8C582C8CCBD
:100DC800C583CCF0A3C8C582C8CCC583CCDFE9DE17
:100DD800E7800D89828A83E493A3F608DFF9ECFAA9
:100DE800A9F0EDFB2289828A83ECFAE0A3C8C582C8
:100DF800C8CCC583CCF0A3C8C582C8CCC583CCDF1A
:100E0800EADEE880DB89828A83E493A3F208DFF9CB
:100E180080CC88F0EF60010E4E60C388F0ED2402AC
:100E2800B4040050B9F582EB2402B4040050AF2397
:100E380023458223900D9A73BB010689828A83E039
:100E4800225002E722BBFE02E32289828A83E493CE
:100E580022BB010B89828A83F8E0C828F0E8225077
:100E68000327C722BBFE07F8E3C828F3E8228A83D2
:100E78008982E49322BB010CE58229F582E5833A55
:100E8800F583E0225006E92582F8E622BBFE06E952
:100E98002582F8E222E58229F582E5833AF583E4A2
:100EA8009322BB010989828A83F8E028F022500343
:100EB80027F722BBFE05F8E328F3228A838982F804
:100EC800E4932822BB010FF8E58229F582E5833AED
:100ED800F583E028F0225009C58229F8E58226F634
:100EE80022BBFE09C58229F8E22582F222F8EA250A
:100EF80083F583E9932822BB010689828A83F0223D
:100F08005002F722BBFE01F322F8BB010DE582294E
:100F1800F582E5833AF583E8F0225006E92582C890
:100F2800F622BBFE05E92582C8F222EF8DF0A4A8BF
:100F3800F0CF8CF0A428CE8DF0A42EFE22BC000B9E
:100F4800BE0029EF8DF084FFADF022E4CCF875F0F7
:100F580008EF2FFFEE33FEEC33FCEE9DEC984005D6
:100F6800FCEE9DFE0FD5F0E9E4CEFD22EDF8F5F09C
:100F7800EE8420D21CFEADF075F008EF2FFFED33A4
:100F8800FD4007985006D5F0F222C398FD0FD5F022
:100F9800EA22C2D5EC30E709B2D5E4C39DFDE49C52
:100FA800FCEE30E715B2D5E4C39FFFE49EFE120FB6
:100FB80045C3E49DFDE49CFC8003120F4530D50732
:100FC800C3E49FFFE49EFE22C5F0F8A3E028F0C525
:100FD800F0F8E582158270021583E038F022A3F854
:100FE800E0C5F025F0F0E582158270021583E0C8AF
:100FF80038F0E822BB010A89828A83E0F5F0A3E091
:1010080022500687F009E71922BBFE07E3F5F0092D
:10101800E3192289828A83E493F5F074019322BB51
:10102800010789828A83020FD0500B09C5F027F780
:10103800C5F01937F722BBFE0D09F8E325F0F3C513
:10104800F019E338F322F889828A8374019325F032
:10105800C5F0F8E4933822BB010A89828A83F0E557
:10106800F0A3F0225006F709A7F01922BBFE06F3F9
:10107800E5F009F31922EF2BFFEE3AFEED39FDEC0E
:1010880038FC22E88FF0A4CC8BF0A42CFCE98EF07D
:10109800A42CFC8AF0EDA42CFCEA8EF0A4CDA8F0D8
:1010A8008BF0A42DCC3825F0FDE98FF0A42CCD359C
:1010B800F0FCEB8EF0A4FEA9F0EB8FF0A4CFC5F006
:1010C8002ECD39FEE43CFCEAA42DCE35F0FDE43CFF
:1010D800FC2275F008758200EF2FFFEE33FECD334A
:1010E800CDCC33CCC58233C5829BED9AEC99E58291
:1010F80098400CF582EE9BFEED9AFDEC99FC0FD51D
:10110800F0D6E4CEFBE4CDFAE4CCF9A88222B8000C
:10111800C1B90059BA002DEC8BF084CFCECDFCE5D7
:10112800F0CBF97818EF2FFFEE33FEED33FDEC33FB
:10113800FCEB33FB10D703994004EB99FB0FD8E580
:10114800E4F9FA227818EF2FFFEE33FEED33FDECC9
:1011580033FCC933C910D7059BE99A4007EC9BFCBF
:10116800E99AF90FD8E0E4C9FAE4CCFB2275F0104B
:10117800EF2FFFEE33FEED33FDCC33CCC833C81070
:10118800D7079BEC9AE899400AED9BFDEC9AFCE89E
:1011980099F80FD5F0DAE4CDFBE4CCFAE4C8F922EB
:1011A800EF5BFFEE5AFEED59FDEC58FC22C3E49FBD
:1011B800FFE49EFEE49DFDE49CFC22EB9FF5F0EA33
:1011C8009E42F0E99D42F0EC6480C864809845F046
:1011D80022EB9FF5F0EA9E42F0E99D42F0E89C453B
:1011E800F022E8600FECC313FCED13FDEE13FEEFE5
:1011F80013FFD8F122E8600FEFC333FFEE33FEEDA3
:1012080033FDEC33FCD8F122BB010789828A8302C3
:1012180012875005E9F802143FBBFE05E9F80214ED
:101228004B22E0FCA3E0FDA3E0FEA3E0FF22E49351
:10123800FC740193FD740293FE740393FF22E0F89B
:10124800A3E0F9A3E0FAA3E0FB227401FF3395E0E1
:10125800FEFDFCA3A3A3E02FFFF0E5821582700238
:101268001583E03EFEF0E582158270021583E03DAD
:10127800FDF0E582158270021583E03CFCF022EC5B
:10128800F0A3EDF0A3EEF0A3EFF022A8828583F09F
:10129800D083D0821212AA1212AA1212AA1212AA69
:1012A800E473E493A3C583C5F0C583C8C582C8F0B9
:1012B800A3C583C5F0C583C8C582C822A42582F505
:1012C80082E5F03583F58322E0FBA3E0FAA3E0F999
:1012D80022EBF0A3EAF0A3E9F022E493FB74019374
:1012E800FA740293F922BB010789828A830212D019
:1012F8005005E9F8021457BBFE05E9F8021469899C
:10130800828A830212E2BB011A89828A83D0F0D0D2
:10131800E0F8D0E0F9D0E0FAD0E0FBE8C0E0C0F0B7
:101328000212D95016E9F8D083D082D0E0F9D0E083
:10133800FAD0E0FBC082C083021460BBFE16E9F855
:10134800D083D082D0E0F9D0E0FAD0E0FBC082C0F0
:101358008302147222BB010DE58229F582E5833AE6
:10136800F5830212D05007E92582F8021457BBFE14
:1013780007E92582F8021469E58229F582E5833AAE
:10138800F5830212E2BB0120E58229F582E5833A62
:10139800F583D0F0D0E0F8D0E0F9D0E0FAD0E0FB67
:1013A800E8C0E0C0F00212D95018E92582F8D083CD
:1013B800D082D0E0F9D0E0FAD0E0FBC082C083024E
:1013C8001460BBFE18E92582F8D083D082D0E0F9FA
:1013D800D0E0FAD0E0FBC082C08302147222D0832E
:1013E800D082F8E4937012740193700DA3A393F85C
:1013F800740193F5828883E4737402936860EFA3A1
:10140800A3A380DF8A838982E473EC8EF0A4CCC521
:10141800F0CCCDF8EFA4CEC5F02DFDE43CFCE8A45B
:101428002EC8C5F03DFDE43CFCEFA4FFE5F028FE26
:10143800E43DFDE43CFC22ECF608EDF608EEF60887
:10144800EFF622ECF208EDF208EEF208EFF222E6EF
:10145800FB08E6FA08E6F922EBF608EAF608E9F6E8
:1014680022E2FB08E2FA08E2F922EBF208EAF208C3
:10147800E9F2227F011207CAD24C1205DD7F06125B
:1014880006D1F1F0EF70FB902C93E0F4600A9030F5
:10149800337406F0B10470FC902C91E071E614C22C
:1014A8000414CA1414CF1514D41714E43014E934EE
:1014B80014EE3614F337000014DC433C10853C80EE
:1014C800802F433D108008433D208003433D8085A5
:1014D8003D90801D433E20853EA08015433F0180FE
:1014E8000D433F108008433F408003433F80853FC2
:1014F800B0903033740CF0B10470FC22903033E0BB
:1015080014F0E022F1721206EDEF6004F18180F62A
:10151800917B1205DD7F011206D17F031206D1915E
:101528008AE4FF0207CA7A2C79917F031244EA7A87
:101538002C799A7F081245E77A2C79977D027F09E2
:10154800120B877B017A2C79957D027F0B120B8712
:10155800902C95D1E66006BEFF1BBFFF18902C9A11
:10156800E024FD6003047004D1FE8009902C95E40A
:10157800F0A37440F0902C9AE024FD6003047008F6
:10158800902C927403F08006902C927402F0902CA8
:1015980091E071E615B80415C31415CB1515D317CA
:1015A80015E93015F13415F936160137000015DE46
:1015B80075FF015338EF8538FD804775FF015339B2
:1015C800EF800E75FF015339DF800675FF0153392F
:1015D8007F8539C9802C75FF01533ADF853ACA8067
:1015E8002175FF01533BFE801675FF01533BEF80C9
:1015F8000E75FF01533BBF800675FF01533B7F8586
:101608003BCB918A7F31D1EDE4FF12185E12063C84
:10161800902C8F7402F0902C93E0247F6009047062
:1016280016D1F6740A80071207DCD1F67458F090C8
:101638002C927403F0D1FE902C94E0F46002C1E186
:10164800902C97E0FEA3E0FF64104E7006902C9457
:10165800740EF0EF64204E7006902C94740FF0EF27
:1016680064404E7006902C947410F0EF64804E70B5
:1016780006902C947411F0E4B5070AEEB4010690B4
:101688002C947412F0E4B5070AEEB40206902C9478
:101698007413F0E4B5070AEEB40406902C9474149D
:1016A800F0E4B5070AEEB40806902C947415F0E43B
:1016B800B5070AEEB41006902C947416F0E4B5073A
:1016C8000AEEB42006902C947417F0E4B5070AEEDD
:1016D800B44006902C947418F0A10C902E85E0FE6E
:1016E800A3E0FF4E2275FF02EF4440F58F227F30C2
:1016F800D1ED902C8F22902C957401F0A3E4F02268
:10170800902D6B5187902D6F51D9F1721206EDEF24
:101718006004F18180F6917B122994122B5C600A97
:10172800902D6B512A78101206CD902D6B1206C899
:10173800902D6B512AE48023902D7212180A602094
:10174800902D6F1244FC6011902D6F124567FF12A7
:1017580006D1902D70F1E980DFE4FF1206D180D820
:101768001207C5902C907401F02275FF02E5E43051
:10177800E10675E40675E40322E51530E20FE51588
:1017880020E50AE51530E0057F01121EC022902DE4
:10179800745187902D7851D9F1721206EDEF6004DB
:1017A800F18180F6122B52600A902D74512A78101C
:1017B8001206CD902D741206C8902D74512AE41289
:1017C80006D1902D7B12180A60101206DE902D7833
:1017D8001244B6902D79F1E980E8918AE4FF020776
:1017E800CAE475F001020FD0E5C85480FF228FEFDC
:0117F80022CE
:061800000202FB020907D1
:101808007FB874FFF5F0120FE645F02290049E129F
:1018180012D0E92290049E1212D0E92404F9E43A85
:02182800FA22A2
:10182B00022FBC902C8EE0120EFF902C93E09000B8
:0E183B0001120F11902C94E0900002020F1188
:10184B00023846D39FEE6480F874809822020B6EA8
:10185B00022CCF903035EFF0902C9AE0640270267A
:10186B001205D9903035E07FAB60027FB91206D1FB
:10187B0012148A903035E0902C99F070047F1EDFA3
:10188B00FEE4FF1207CA2275FF0275E404E4F5E4D7
:10189B001203E2123E79900736EFF0901200E0B49B
:1018AB007A14901214E0B49C0D900736E0FF640597
:1018BB006004EFB4032EE490073FF090073FE0FF86
:1018CB00C394805013E42FF582E43412F583E4F0D3
:1018DB0090073FE004F080E3901200747AF09012CE
:1018EB0014749CF0120B914003120B8C7B017A1237
:1018FB0079107F011245E77A1279117D017F211250
:10190B000B877A1279127F221244EA7A1279177DA9
:10191B00017F02120B87901217E0B401057F0112B1
:10192B00418E120B28123E79120B23900736EFF0E3
:10193B00120C0E120B19900736E0FF120D17EF2445
:10194B00FFB3926775FF0253E6BF122F96120B324D
:10195B00122060206709122F0F12462A1209AC7F42
:10196B0001D1C0D2AF20670221FB120B961208B730
:10197B00120D12120B8240F2900735E06041120BF0
:10198B0055EF70051245424036E51470FCE5152005
:10199B00E502D1E1120871EF70FA123E35500512D3
:1019AB003E2150047F01115E900735E0B40204E440
:1019BB00FF8009900735E0B403057F01123F361213
:1019CB000B50E51530E1A31245124002E4F0E5158A
:1019DB0020E50451C751E51244BDAF82AE83EFC081
:1019EB00E051D5900738E0FDD0E0FF120C042175D3
:1019FB00122F5A900735E06047201A032009411235
:101A0B000B55EF70051245424036E51470FCE51599
:101A1B0020E502D1E1120871EF70FA123E35500544
:101A2B00123E2150047F01115E900735E0B4020491
:101A3B00E4FF8009900735E0B403057F01123F36C0
:101A4B00900735E0600C201A0930090620020312BA
:101A5B000984120B961208B7123D6D120D0D20362C
:101A6B0005120B5080221208CB90072EE0FEEFC31D
:101A7B009E4005EF9EFF800890072EE0F4042FFF99
:101A8B007406D39F5002C236E51530E1271245127A
:101A9B004002E4F0E51520E50451C751E51244BDC1
:101AAB00AF82AE83EFC0E051D5900738E0FDD0E0B8
:101ABB00FF120C04120AF6122F6B21FB900737E072
:101ACB00FD75F0AA9007431212C4ED75F002A42421
:101ADB0030F9740735F0FA7B0122AF82AE837D01BA
:101AEB0090048CEEF0A31244E4E5147078F10D50E1
:101AFB0004C259717190048CE0FEA3E08E11F512B3
:101B0B00A31212D09003EC1212D9AE11AF127DAA10
:101B1B00123B0DE4F5FF75D908F510E5155421605E
:101B2B002CE51530E505E4FF123415E4900491F033
:101B3B00900491E004F0123453EF6009900491E0AB
:101B4B00C3941040EB7F02120D355315DE9003E862
:101B5B00E07F00B403027F011235A6D2597171D216
:101B6B00EBA23C92ED2290303AE5F4F0E0547FF595
:101B7B00F47F827E00F135F12EF11D5005E5FC203E
:101B8B00E6F730590890303AE04480F5F4F128F14B
:101B9B001D5005E5FC20E6F775FF01E5D520E702B2
:101BAB00C322E5F4D330E601C32290049E1212D96E
:101BBB00D250C2EBE5146002C120E51530E202C33E
:101BCB0022111424E512465E123CE8111C120FFC84
:101BDB005407FF9003EAF01237AC9004A1EFF0E545
:101BEB001520E06CF11540047F01D1C09004A1E0F9
:101BFB00FF7B017A0479A2F168E4337004D2EBA184
:101C0B00FE9004A1E024C91246C9E0FF9004A2E0B3
:101C1B00D39F403CD2EB123BBAA23C92ED9003FB1C
:101C2B00E06012111424E5124650120EFF43150406
:101C3B00124581D322900409E070137A0479097C50
:101C4B00307D2B7464124599E4A3F01208DAC32299
:101C5B00F1155004C2597171F1FCE5D120E0FBE4A0
:101C6B00F510111C120FFC5407C39403E49400509D
:101C7B0030111424B1D180FF111424D8D1802FFF3F
:101C8B00E433FED3EF9440EE648094804013111440
:101C9B0024E5124615120EFF431504A23C92EDD318
:101CAB002211142408F9E43ACFE9CFF5118F121160
:101CBB001424B1D180F516AE111241DA111424B2ED
:101CCB00F9E43A8B1CF51D891E111424D8D180F52B
:101CDB001F111C120FFCFDACF05460602F1114246B
:101CEB00D9D180FF123B94C250D170FB7A00900483
:101CFB000A1246C17D18120F33EF2BFFEA3EFEEF9F
:101D0B002414FBE43EFA7D027F01A1EA111C120FA1
:101D1B00FC54079003EAF0751408111424B2F9E48B
:101D2B003AFA123A9B111424D8D180FFAD16123A0D
:101D3B00D59003EAE0640370237B01FDD140114E83
:101D4B0050057401120EAAE4F5FF123AB7120E40B9
:101D5B002428FBE433FA7D03E4FFA1EA9003EAE0D5
:101D6B006402702AD143114E400574FF120EAAE48F
:101D7B00F5FFE5D25480440AF5D2120E402414FB31
:101D8B00E433FA7D027F01123C34D1878054E4FBAB
:101D9B007D01D140114E400574FF120EAAE4F5FFF0
:101DAB00111CF1EB7F0560027F0AEF547FFFE5D238
:101DBB0054804FF5D2E4F5FF43D280D170FD7C0007
:101DCB00111CF1EB7E0060047F0A80027F05EF257A
:101DDB00E0FFEE33FEEF2DFBEE3CFA7D017F0112AF
:101DEB003C34111C120FFCFFAEF0A250924F123577
:101DFB00B54006A23C92EDC3221245819004A1E0AE
:101E0B00FF111424E7F9E43AFAEF120EFFA23C9209
:101E1B00EDD2EBD322A23C92EDD2EBC3229027BBA7
:101E2B00E075F016A424E9F9741F35F0FEAF01E458
:101E3B00FCFD020786FFD18C90049E1212D0E92480
:101E4B00B1F9E43AFA120E40FF90049E1212D0E957
:101E5B0024D8F9E43AFA120E402FFFE433FEEF24B4
:101E6B0001FFE43EFE90049E1212D0E924B2F9E485
:101E7B003AFAE92407F9E43AFA020E40E4FB7D0151
:101E8B00FFE4F5FF75D102E5D120E0FBE4F5FFF5AA
:101E9B00D1EF6008E4F5FF43D2808006E4F5FF53F1
:101EAB00D27FEB6006E4F5FF43D104ED6006E4F569
:101EBB00FF43D10822EF600C51C7AF82AE83E4FD24
:101ECB0051EB800F3035037F0022120B64D1E1E41C
:101EDB0033FF227F0122E5147026F10D5004C25905
:101EEB0071711234307F08120D35F1FCE5D120E011
:101EFB00FB4315205315FEE4F510A23C92EDD322C3
:101F0B00C322C2EBA2ED923CC2EDE5F4C330E70174
:101F1B00D32275FF03E591C330E701D3227FE87E1F
:101F2B0003F13575FF0343918022902F1FEEF0A331
:101F3B00EFF07B017A2F79211233E45014902F218B
:101F4B00E0FEA3E0FF902F20E09F902F1FE09E402C
:101F5B000B902F1FE0FEA3E0FF12273322902F2FB1
:101F6B00EFF0A31236E875FF011233B3EF64016093
:101F7B0002C322E5F430E602C3227FE87E03122778
:101F8B0033F12E123567400122C2597171902F2FF8
:101F9B00E0FF12341553F4DFD25971717F787E0054
:101FAB0012275075FF0153E4BFE5E430E7FB123E07
:101FBB000C7F8A1236F130E606122716E48008757C
:101FCB00FF01122716E5D9120EFF75FF0143E440FE
:101FDB00124708400343F420123567400122D322F5
:101FEB00120FFC441045F022C2AFEFF45215D2AFE2
:101FFB0022E4F5FFE5D154FE4402F5D1227E267F83
:10200B00AAE4FDAB05E4FCFD902ED8EBF002073CF7
:10201B00902F90E075F005A4242EF9742B35F0FE6B
:10202B00AF017B017A2B799E902E807405F0902E58
:10203B007DF1C7C007902E7D1212D0902E80E0FF4D
:10204B00902D7BE4F0A3EFF0D0070217967B019065
:10205B002E80F080D912152E120B46120C09120B82
:10206B009B900736E064017002211A7FFF1208A8CB
:10207B009004771212D97E007F15121E3ABF540EB0
:10208B007E007F16121E3ABFA5047F0180027F00DF
:10209B00900734EFF064017055900477F1EE7A04F9
:1020AB00797D7402115890047DE0FEA3E0FF90044B
:1020BB007712456DE92407F9E43AFA90047A121283
:1020CB00D9E92408F9E43AFEAF017B017A04797D62
:1020DB00902E807402F0113990047DE06405700439
:1020EB00A3E0642260081208AD900734EFF090076C
:1020FB0034E0701B7E007F10C006C3743C9410FE4E
:10210B007438124482D006F1CEE4FFFE1208B212EC
:10211B000A5B12099812091B306705754F0180374E
:10212B00124494120876F1D5FE4FFDA3E0FC4DFD51
:10213B00A3E0FB4D600BEE5FFFEC5FFFEB5FF4701A
:10214B0002D1BCE54F54032439F582E43407F583FF
:10215B00E0654F90072FF0E4902E18F0902E16F0BC
:10216B00A3F002000AF0902C8CE0FFF422902F9049
:10217B00E075F005A4242EF9742B35F0FEAF017B2E
:10218B00017A2B7999902E09E4F0A37405F0902E27
:10219B0006F1C7C007902E061212D0902E091245D9
:1021AB00B2D007902CF8121287902CFC1212D990F7
:1021BB002CFC1212D0902CFF122B45902CF81212E3
:1021CB002AF1F65002417A902C96E024FFFF902CD6
:1021DB0095E034FFFEE4FCFD902CF8121246121130
:1021EB00A8902D01EEF0A3EFF04E603B902D015126
:1021FB00D2902C96E09FFF902C95E09EFE902D01A7
:10220B00F0A3EFF0902CFFE0FCA3E0FDD39FEC9E3E
:10221B005006A3ECF0A3EDF051854A6004517C808D
:10222B00417E007F00803B902CFF1216E6603E90B3
:10223B002C95E0FCA3E0FDD3EF9DEE9C400A902D86
:10224B0001ECF0A3EDF0800D902CFFE0FFA3E0A3D9
:10225B00CFF0A3EFF051854A6004517C80047E00DF
:10226B007F00902CFDEE8FF0120FD080BAD322C3DB
:10227B0022902D01E0FEA3E0FF22902CFC1212D045
:10228B00902D01E0FFA3E0902D72CFF0A3EFF09023
:10229B002CF812122A121708902D01E0FEA3E0FF72
:1022AB00C3902D00E09FF0902CFFE09EF0902CF857
:1022BB00121246E4FCFD12107E902CF8121287903D
:1022CB002CFC1212D0E922E0FEA3E0FFC322902CDB
:1022DB0041121287E4F5FF75BB0575BB8575FF01D0
:1022EB0075D502205405F1221233FA75FF0143D53F
:1022FB00203054026198E4F5FF538EF7438E077D2F
:10230B0004E4F5FF8DBCF5FF43B102E5B130E2FB10
:10231B00E4F5FFAFDFEFFEACDEECFBEBFFED25E012
:10232B00243FF582E4342CF583D1FEF5FFF5FF5302
:10233B00B1FD0DEDB40CCA902C41B129FF780912F7
:10234B0011EAA3D1FEFDED25E02449F582E4342CFE
:10235B00F583E0C313FAA3E013FBD1AF1237972B2E
:10236B00FFEE3AFED1AFEEF0A3EFF0ED24049012A6
:10237B000DF0EDC394075015CFEDCF0DEFD1B0514C
:10238B00D2902C46E09F902C45E09E50B9E4F5FF8F
:10239B00758EC8F5FF90120DE0F5BCE4F5FF75BB2B
:1023AB008075FF01F5D522902BDD12128775FF0288
:1023BB0043E180123430F19B902BF2121293002DDB
:1023CB00C6C0E4F5FFF5A490120EF0A3F0902BED30
:1023DB007402F0F105FFF595EF14601314601C24E3
:1023EB00027027902BDDB129D1A8902BE980169094
:1023FB002BE1B129D1A8902BEA800A902BE5B129CA
:10240B00D1A8902BEBE0902BF6F01240D4902BF64A
:10241B00E0700FF5FFF59675FF0175D70975F41888
:10242B00805B90120EE004F0902BEDE01236D8900A
:10243B002BF2B129FF902BEE124182C31211D9500E
:10244B000A902BEEB129FFA3121287902BF6E0FF17
:10245B00123F54902BECE0FFA3E0FDA257925512D4
:10246B003FB3A3B129FF902EDF121287902BEDE023
:10247B00FF1240E1902BEDB11BFF12352BF10D60DC
:10248B000261DE7402F0F105F595E5F45407701C5A
:10249B00902BF2D17E78011211EA902BEDE0FB121A
:1024AB004174121287EBB11CFF12352BF10D70D654
:1024BB0075FF03759580124708400343F420A2571C
:1024CB009256124005902BF2B1292420FFEE344E88
:1024DB00D1A0E4FB7A04F9F8D18E78011211EAC28B
:1024EB005451D9E4F5FFE5BD54F84404F5BD901201
:1024FB00137401F07E127F01E4FD8F828E83EF2D2A
:10250B00124700FC901213E02CF00DEDB412EB22ED
:10251B00E025E025E02401F582E43412F583E0FCAC
:10252B00A3E0FDA3E0FEA3E022902D031236E8907A
:10253B002D0912129300000001902D0D7401F0F57E
:10254B00FFE5D554C07005121F155002C322E4F5E8
:10255B00FF53967F75FF0175D504F12275FF01437B
:10256B00D508E4F5FF5394FBF5FF53847FF5FF7516
:10257B0098FF902D07E5F4F075F49C75FF01A3E52A
:10258B00E4F075E4257B017A2D790D123640902D00
:10259B000DE064016002C15CF5FF902D067414F030
:1025AB00902D09B129FF78011211FD902D091212FE
:1025BB0087E5A730E1FB43A702902D09B129FFE581
:1025CB00A730E005E47B018002E4FBFAF9F8EF4B5E
:1025DB00FFEE4AFEED49FDEC48FC902D09121287E7
:1025EB00902D06E014F070B8902D09B129FF7810EA
:1025FB001211EA7B6D7A4E79C6784112108BEF245B
:10260B0039FFEE3430D1A0E4FBFA7901F812111640
:10261B00EE547FFEE4FDFC12379F902D09B129FF8C
:10262B00EB6FFFEA6EFEE8CDEFCDCCEECCECFF907E
:10263B002D03F119EF120EFF902D03F119900001EC
:10264B00ED120F1190120FE030E606E4F5FF7596D0
:10265B008075FF01E4F5D5902D07E0F5F475FF01CA
:10266B00A3E0F5E4123FA2902D0DE0B40103D3805B
:10267B0001C322FF7E04FDFCE0F8A3E0F9A3E0FA1E
:10268B00A3E0FB12108BE47B7DFAF9F8121116EF25
:10269B002401FFE43EFEE43DFDE43CFC22FF902BD5
:1026AB00EE021287ED25E02447F582E4342CF58306
:1026BB0022E4FF121EC0EF6039F1E7B1345005126E
:1026CB0046F840F57B017A07793BB134500EF1D5D2
:1026DB005FFFA3E05FFFA3E05FF460E87F01121EE2
:1026EB00C0754F017E007F08F1E7902E09E4F0A33F
:1026FB00F1C222EEF0A3EFF0E42275FF03902BED75
:10270B00E022902BEDE0FF14F0EF22902F30E0FB56
:10271B00A3E0FAA3E0F9227F3FFEF133121F2E75DF
:10272B00FF03E59120E7FB2275FF03D3EF9402EE45
:10273B009400400874FE2FFF74FF3EFEEFF592EEFF
:10274B00540FF59122CDEFCDCCEECCF18FAB94EFB6
:10275B004B1236E0CBEFCBFAE59130E719F192A9AA
:10276B0094E9F582EF4582FFEB1246A9C3EF958200
:10277B00E5F0958340E2E59120E708CEECCECFED76
:10278B00CFF1252275FF03AF93EF75F010A4FF2255
:10279B00F1B853DB7F75FF0175D5027F147E00F115
:1027AB0025F1B843DB8075FF01E4F5D52275FF01F8
:1027BB00438E1075FF01227404F021991212D9E493
:1027CB00FCFD22319974FFFDFC22900739E0FFA339
:1027DB00E022F9E43AFA902E391212D97B017A07EA
:1027EB007939221212D0AE02AF0122902B70121245
:1027FB0087902B741212D9E4902B97F0D3902B78EF
:10280B00E0941E902B77E094004001227B017A2B01
:10281B007979902B777110902B7012122A121796D0
:10282B00902B741212D0E94A600B902B97E0F58233
:10283B001171FF80027F00902B97E02479F582E4E1
:10284B00342BF583E06F6002C322902B97E004FFDB
:10285B00F0D3902B78E09F902B77E0940050C1221F
:10286B001212D0854A82758300020E7D902EC911FB
:10287B00EFE58F20E0FB11F6E4FF902EC91212D08A
:10288B008F821171F5930FEFB410EFE4FF902ECC04
:10289B001212D08F821171F5940FEFB410EF2290BA
:1028AB002DB311EFE58F20E0FB11F67E10902DB6C6
:1028BB0011E81171F593EE70F47E10902DB311E8C1
:1028CB001171F594EE70F47F0131067107EF70FB17
:1028DB007E10902DB911E851D9EE70F6221212D05C
:1028EB001E8E82221212D975FF012275FF01538FA2
:1028FB000675FF01538FF075FF0122EFB4010751ED
:10290B00F84401F58F2275FF01E58F54F04406F56D
:10291B008F22902F0B1212D9902F0E31F2943F4031
:10292B0003743FF075FF02E5CD30E105E4F5498016
:10293B0003754901E5496030E5FD254A04543FFF25
:10294B00E5DD543F6F6021902F0E319D501A902F73
:10295B000B116BAEFD51CE543F248EF582EC340639
:10296B00F583EFF0054A80CCE5496008E5FD254A83
:10297B00543FF5FDAF4A22903063EFF07B017A3084
:10298B0079637D01311D7F01221205DD902C8FE0D3
:10299B00FF22E0FFE54AC39F22902F131212D9901A
:1029AB002F1631F2943F4003743FF075FF02E5CBD5
:1029BB00254A543FFFE5DB543F6F601E902F1631C5
:1029CB009D5017ADCB5148543F244EF582EE340643
:1029DB00F583E0902F13515080D4E54A600625CB48
:1029EB00543FF5CBAF4A22EDF0E4F54AEDD32290FC
:1029FB002F171212D9902F1A31F2941F4003741F04
:102A0B00F075FF02E5CC254A541FFFE5DC541F6F20
:102A1B00601E902F1A319D5017ADCC5148541F2476
:102A2B00CEF582EE3406F583E0902F17515080D40B
:102A3B00E54A600625CC541FF5CCAF4A22ED254A5A
:102A4B00FF7E00EF22FF1212D0854A82758300EFC2
:102A5B00120F11054A22902F0F1212D9902F12ED3F
:102A6B00F075FF02E4F54AEDD3941F4003741FF099
:102A7B0075FF02E5CD30E205E4F5498003754901A8
:102A8B00E5496030E5C9254A04541FFFE5DE541FB4
:102A9B006F6021902F12319D501A902F0F116BAE3A
:102AAB00C951CE541F24EEF582EC3406F583EFF0BA
:102ABB00054A80CCE5496008E5C9254A541FF5C98C
:102ACB00AF4A22FFE54AFDEE2DFD7C00ED2275831A
:102ADB0000E593020F11902FF011EFE4FF902FF010
:102AEB001212D08F8251D90FEFB410F12275FF0162
:102AFB00E58F54F62251F84408F58F2275FF01E556
:102B0B008F5401FF22E0FFA3E0902D7BCFF0A3EFCA
:102B1B00F0227B017A3079317D0131A4903031E0A4
:102B2B00FF22902E0D1227C7C007902E0D1212D028
:102B3B00902E107145D0070227F6E0FFA3E0902BF3
:102B4B0077CFF0A3EFF0227F011207CA1205DD7FCA
:102B5B00031206D1902C92E0640222121772120615
:102B6B00EDEF600512178180F522902C90E0FF228B
:102B7B00E4902C90F022E4FD7C0CAB050DEB900562
:102B8B00B0938F828E83F00FBF00010EDCEC02003E
:102B9B00368F828E83E4F0740471AF743D71AFA3F2
:102BAB00A3E4F022A3F08F828E83A322903037EF21
:102BBB00F0902CB9E0B40110C2ED7A307937902D3A
:102BCB005071D4120BA5D2ED227B011212D97A2CA3
:102BDB0079BA22902CB9E0640170287B017A2C79A8
:102BEB00BA120BAFEF701C903038F0C2ED7A30791F
:102BFB0038902D1C71D4120BAAD2ED903038E0FF17
:102C0B00120B73227A0B7B7812B20E902CB97401D3
:102C1B00F0FB913B7E2B7FDE90073DE0FCA3E04C6D
:102C2B00700590073D8002C322EEF0A3EFF0D32294
:102C3B007A2C79C2902DEF1212D9902DF27401F0EB
:102C4B00A37405F07A2C79BA020BA07F01121EC077
:102C5B00902CB9E0B401047B01913B229004D6ED9A
:102C6B00F09004D5EFF0BF0411A3E0FB7D017F01D1
:102C7B0091A29004D57403F0800B9004D6E0FB7DF9
:102C8B0001E4FF91A29004D5E0900735F0D2091230
:102C9B0008CB9007418092EB600875FF0153CDFD87
:102CAB00800675FF0143CD02ED600553FBDF80030A
:102CBB0043FB20EF600775FF0243E1402275FF02E3
:102CCB0053E1BF22C0E0C0F0C083C082C0D075D03A
:102CDB0000C000C001C002C003C004C005C006C0D4
:102CEB0007903039E5FFF075FF02E5D430E60D753E
:102CFB00D440902E811216E66002D13E75FF02E59C
:102D0B00D430E50D75D420902E831216E66002D1D7
:102D1B003E75FF02E5D430E40A75D4101216E36059
:102D2B0002D19475FF02E5D430E30D75D408902ED3
:102D3B00811216E66002D14775FF02E5D430E20D31
:102D4B0075D404902E831216E66002D14775FF02EC
:102D5B00E5D430E11575D402D19DEF600D1216E369
:102D6B006004D18B8004D158D15075FF02E5D4306B
:102D7B00E01175D4011216E360098F828E837F07F1
:102D8B0012141075FF02E5D530E41175D51012162B
:102D9B00E360098F828E837F0312141075FF02E5A7
:102DAB00D530E10A75D5021216E36002D18275FFA8
:102DBB0002E5D530E01175D5011216E360098F825B
:102DCB008E837F0412141075FF02E5D530E2117566
:102DDB00D5041216E360098F828E837F0A121410BA
:102DEB0075FF02E5D530E71175D5801216E3600942
:102DFB008F828E837F0812141075FF02E5D530E6A3
:102E0B001175D5401216E360098F828E837F0912EC
:102E1B001410903039E0F5FFD007D006D005D00460
:102E2B00D003D002D001D000D0D0D082D083D0F04C
:102E3B00D0E0328F828E837F010214108F828E83BB
:102E4B00E4FF021410D178E4F59E7F012275FF0197
:102E5B0053CCFD43FB40D178759E0143FB0975FFB5
:102E6B0003859E9E75FF03859E9E7F012275FF0243
:102E7B0043D20175FF03228F828E837F06021410CB
:102E8B008F828E837F020214108F828E837F0502C6
:102E9B00141075FF02AFD3EF7F0030E6027F0122E3
:102EAB0075FF028FD675FF02AF058FD77F01EF60DD
:102EBB0003D2ED22C2ED22E475FF02AFD4CDEFCDEC
:102ECB0075FF02AFD5EFFCEDCEECCEFF2275FF0206
:102EDB00EFF452D475FF02EDF452D52275FF02E5E3
:102EEB00DB543FFFE5CB543F6F7F0060027F012235
:102EFB0075FF02E5DC541FFFE5CC541F6F7F0060AC
:102F0B00027F01229007407402F0900734E0FF1219
:102F1B000D1C9007407405F02275FF0275E40475D3
:102F2B00E40175E4022275FF0275E404E4F5E42282
:102F3B0075FF028FE32290072FE064AA2411FFF0A4
:102F4B0022AE07F141EE04FEEF8EF084AFF022309B
:102F5B00370D120943EF6007C26012092FC23722E7
:102F6B0090073D1216E66009CAEECAC9EFC91214E2
:102F7B000C22EFB40103D2EF22C2EF22E5C854407A
:102F8B00FF75C84022E5C85420FF2275FF02D2AD61
:102F9B00D2BD75FF02758E7175500975FF02E58EF6
:102FAB00546F4480F58E902F1B121293000000007B
:102FBB0022C0E0C0F0C083C082C0D075D008C0FF73
:102FCB0075FF02E58E30E43B75FF02E58E54EF444E
:102FDB0010F58E902F1B12122A12269A902F1B126D
:102FEB001287900000E41217EAE55030E002054129
:102FFB00E550700D755009054CE54C7002054B8082
:10300B0002155075FF02E58530E40875FF02438514
:10301B00100554D0FFD0D0D082D083D0F0D0E03286
:10302B00E4900409F09003FB04F022121F155006E4
:10303B00114350028001C322E5F754E024FF22AF75
:10304B0014EFC36001D322EFC3940E50059003EB32
:10305B00EFF022E517540FFF22E517C394F0501F32
:10306B005317F0118DFE740FC39F4005EE940E4065
:10307B000543170D8003EF4217E517540FFF227F0F
:10308B000022E517C4540FFEEF900584932E2211F6
:10309B008DFFC3940E40027F0DEF90056693FF22C8
:1030AB00EF30E303AF1322AD1B203D04EE30E00BFA
:1030BB00E517C394F0502011E58018E5196006FD63
:1030CB00E4F5198012E517C394F0500BE517540F74
:1030DB00FF6004119AAD07AF05229003EBE0FDFFF3
:1030EB00C3740E310DEFC4F8540FC868FFEEC4540F
:1030FB00F048FEE51754F0C312184F7F005002AF93
:10310B0005229FFFE49400FE22902F2BEDF09012EE
:10311B0011E0F46005A3E0B4FF0C902F2D7418F0B0
:10312B00A37413F08010901211E0902F2DF09012D9
:10313B0012E0902F2EF0120E4064016002417D9040
:10314B002F2BE0FE64086004EEB40408902F2C745F
:10315B0028F08006902F2C743AF0EF12251CFF12EA
:10316B0011B5E4517EEF24D8FFEE343FFEED3493DE
:10317B00FDEC3416FC7B007A807903780012039EF9
:10318B00F19F902F2EE0FF902F2DE0C3310DE4FC2B
:10319B00FD12108BECC0E0EDC0E0EEC0E0EFC0E044
:1031AB00902F2EE0FFE4FCFDFE517ED0E0FBD0E043
:1031BB00FAD0E0F9D0E0F8EB2FFBEA3EFAE93DF963
:1031CB00E83CF8902F2CE0FFE4FCFDFE12108BEF97
:1031DB002454FFEE340B1226A0E47BA87A16F9F8E0
:1031EB0012039ECBEFCB902F2BE014605D14601B72
:1031FB0024FE600C24FC707AE4F5FF75CE3180065A
:10320B00E4F5FF75CE21F5FF8BCF22E4FAE4F5FF51
:10321B00EA2440F5CEE4F5FFEAFFC37407310D74E1
:10322B00BC2FF58274053EF583E45186C39DF5CF23
:10323B00E4F5FFEA2448F5CEE4F5FFEA9005BC512E
:10324B00862DF5CF0AEAB408C422E4F5FF75CE014A
:10325B00F5FF8BCFF5FF75CE0EF5FFEB25E0F5CF28
:10326B00E4F5FF75CE0FF5FFCFEBCFEB75F003A4B5
:10327B00F5CF227B64FAF9F802108B9325E0FDE47D
:10328B0033FCEB75F010A4FFAEF0120F45CDEFCD74
:10329B00EBFFE4C313EF1322902E20D1FDEBF09044
:1032AB002E267401F0C258121F28121F1D5005E55F
:1032BB00FC20E6F671B3BF0108E4F5FC75FC408019
:1032CB000771B3BF0202D32275FF0153D8EF902EC3
:1032DB0021E0FFF1BC75FF0153D5DF53FAFB902EB4
:1032EB0020E0FF9115902E21E0902E20B4080A12B9
:1032FB00251B245212269D800412251BFFB12B90F7
:10330B002E22E0FFD1CB75FF0175FF03759B0412D5
:10331B001F2875FC42E5FC20E105121F1D40F390B0
:10332B002E23E0F075FF03E59B20E705121F1D40E0
:10333B00F3E59B20E70C75FF03759B1F9130D2586B
:10334B00804B71ACD140902E21E0FD90120FE05DCF
:10335B00701C902E20E0FF71AC311490120FE0FF27
:10336B00902E21E0FEEF4E90120FF01224F971FA1D
:10337B007B017A2E792471E4500FC3902E25E094B3
:10338B0020902E24E0940340E771ACD17312272ACE
:10339B0030580241AA902E26E0B40103D38001C31A
:1033AB00227B017A2E7926227FFA7E001227331296
:1033BB001F2EE5FC30E605121F1D40F6E5FC30E63E
:1033CB00037F032275FF01E5D530E6037F0222E57B
:1033DB00D57F0030E7027F012212278FAD94EF4D8E
:1033EB00D1E08FF012105FE591C330E701D322E4F7
:1033FB00F5FF75C2E17F1ED1F130E707E4F5FF75EC
:10340B00C2A122E4F5FF75C2812275FF01E5D5301B
:10341B00E602C322E4F5FF439A80EFD1D8E4F5FF2F
:10342B00539A7FD322E5FA30E1FB75FC8075FF01DF
:10343B0053D5EFE4F5FC75FC40914CE5FC20E6FB25
:10344B002275FF03E4F59122E4902F27F0A304F0FB
:10345B00E4902F2AF0E5FA30E1FB75FF01E5D5305A
:10346B00E7037F0022E4F5FF75E50875FF0153D8EC
:10347B00EFE5D530E61A75FF01902F29E5DAF0E478
:10348B00F5DA75FF01E5D630E3FB902F2A7401F0D6
:10349B0075FF03759B0475FC4175FF03E59B30E7D6
:1034AB00FBE4FB75FF038B95EB12251CFFB12B0B7C
:1034BB00EBB403EF75FF03759580E4F5FF758EC8CC
:1034CB0071FA75FF0153D5FB914C7F147E001227C7
:1034DB002575FF0143D504902F2AE07009914C7F8D
:1034EB00C87E001227257B017A2F7928D173902F64
:1034FB0028E0902F277006E04404FF8002E0FF9045
:10350B002F27EFF090120EE0B4010675FF0143D8A0
:10351B001075FF01902F29E0F5DA902F27E0FF229D
:10352B00902F2312128775FF01902F23A3E0FDA389
:10353B00A3E4FFFEE4FC78101211EA8FE1902F2335
:10354B00A3A3E0FEA3E4FFE4FDFC78081211EA8FCD
:10355B00E2902F23A3A3A3E0FF8FE322E5F730E54F
:10356B000FE5F754C07005121F1D40F0914CC3229C
:10357B00D322C259121B71121FFCE5D120E0FBE4D0
:10358B00F5FF75D9089003E8E07F00B403027F01D3
:10359B00B1A6D259121B71E4F51022911543FA040E
:1035AB00E4F5FF53D1FD43D101224315015315DF40
:1035BB0011ABB1F54004E4F5142243FA045315FBA7
:1035CB00304F04B1AB800A7F55B1DE7F55B1DED2EF
:1035DB00EBD32275FF01E5D520E602C322E5FA54B1
:1035EB000360FA75FF018FC3D3229004C7EFF090ED
:1035FB0003EAE0FFF1AC9004C8EFF09003EAE0249B
:10360B00FD60130470089004C67404F0800E9004DF
:10361B00C67408F080069004C67402F07F01120D88
:10362B00359004C8E09004C6D1D1E4902E23F0511C
:10363B00A350EED322902F87D1E87F017C127D011E
:10364B00E4FE8D828C83ED2EF582E43CF583E02F36
:10365B00FF0EEEB412EC901213E06F600A902F87FE
:10366B00122719E4120EFF22C25375FF03759B1F1D
:10367B0075FF0390120FE020E71BE59A540FC394DC
:10368B00024012E04480F0E4F5FF75C2A143FC0454
:10369B0075FF03D253E5FC30E609E59A540FC3944A
:1036AB000540CDE5FC30E611E4120EFF75FC80F50C
:1036BB00FC75FC40E5FC20E6FB3053031224F92299
:1036CB0075FF018FDA22FFE0FDA3E0FB22333333DA
:1036DB0054F8F5F42224FBFFE5F034FF22EBF0A3C2
:1036EB00EAF0A3E9F022FE12275090120FE022EE2F
:1036FB00F0A3EFF0A3EDF0A322902F33D1FAEBF070
:10370B00F180AC00AD01AE02AF03C006C007902F35
:10371B0033F197FBAA06E4F9F8D007D006D31211C0
:10372B00C37E0050047F0180027F00C006C007F1FA
:10373B0080D0E02FFFD0E03E902F33F0A3EFF0537B
:10374B00ECFC902F33E0FCA3E0FDEC540342EC7552
:10375B00FF02EDF5AF75ED0275ED04A3E0600543D7
:10376B00EC08800353ECF7902F36E0600443EC0435
:10377B002253ECFB22902F33E0FEA3E0FBAA06E4DE
:10378B00F9F87F807E387D01FC02039EE0C313FEB7
:10379B00A3E01322C8ECC8C9EDC9CAEECACBEFCB64
:1037AB0022EF24FD600680007E018002E4FEAF065E
:1037BB002275FF01E5D530E602C32253FACFEFB4F1
:1037CB00080543FA308012EFB4040543FA20800950
:1037DB00EFB4020543FA108000D322900740E0B407
:1037EB00020D8F1B900489E0F513120B2DD322C30E
:1037FB00229004C31212D99004C31212D0E51B12EB
:10380B00383412383B11335194F9E43AFA1133122C
:10381B0012D0E92403F9E43AFAE513113412181F14
:10382B00113351CAE4020EFFE4120EFF9004C322BF
:10383B001212D0E92401F9E43AFA22C0E0C0F0C038
:10384B0083C082C0D075D008C0FF75FF01E5D530AD
:10385B00E6047F028009E5D57F0030E7027F018F08
:10386B0018E51864026002211EE5141213E6389263
:10387B000138A502390A0838B00938BB0A38C90B18
:10388B0038E60C00003A6175FF0175C355151AE552
:10389B001A60024161751402416175FF0175C3F035
:1038AB00751409416175FF0175C35575140A4161A2
:1038BB0075FF019003FCE0F5C375140B416175FFB7
:1038CB00019003E9E0F5C3751401751A1490040A0D
:1038DB0051C06002416175140C4161AB1CAA1DA95A
:1038EB001E519BAD16AF1F51D5121E8775FF005190
:1038FB00B743FA0475FF001235AE7514084161C267
:10390B00EB75140043150451E240024161E41217B8
:10391B00EA4161E51864016002416151A74002412F
:10392B0061E510705E51881212D0E5D9120EFF516D
:10393B007CE09004DFF0712E51F99003E8EFF090EA
:10394B0004DFE0FFD39409500221DF9003E8E0D3BA
:10395B009402400CEFD394AA7F0040027F01800DAC
:10396B009004DFE0D394407F0040027F01EF6002C0
:10397B0080629004DFE0FFF51675FF008FD975109C
:10398B00034161E5106403600241615188113BE51D
:10399B00D9120EFF75FF009003E8E0C39403E5D343
:1039AB0050055402FF80035401FFEF602C30E111EE
:1039BB00C39003F6E094FF9003F5E094FF5015805D
:1039CB000FC39003F8E094FF9003F7E094FF5004CB
:1039DB00E41217EA12357D807DC259121B7175FFF7
:1039EB0000121FFFE5D120E0FBC2EB43150251751E
:1039FB00A3E0FF90073AE0FEEF6E5174E0900739B9
:103A0B00516EA3A3E090073B516EA3A3A3E0FE90DE
:103A1B00073CE0FDEE6D4F6013C39003FAE094FF9B
:103A2B009003F9E094FF5004E41217EAC39003F4F7
:103A3B00E094FF9003F3E094FF5004E41217EA754F
:103A4B0010009003E8E0B403071516517CE516F05F
:103A5B00900738E516F0D0FFD0D0D082D083D0F0CD
:103A6B00D0E032FEE0FDEE6D4FFF851282851183B3
:103A7B0022E5122407F582E43511F5832275FF0147
:103A8B00F5EA75EAFF9003EC221212D0E924022228
:103A9B00E4F5FFE951AEEA540F42D622E5F754C0E4
:103AAB0024FF22F5D7E4F5FF53D6F022E5D254805C
:103ABB004414F5D22274FFF5F0120FD045F0221208
:103ACB0012D0E92405F9E43AFA22E4F5FF8FD4F594
:103ADB00FFCFEDCF8FD522C39003F0E094FF90037F
:103AEB00EFE094FF2251E25004E41217EA22EF2494
:103AFB00FE600C24FE600580007F01227F02227F86
:103B0B000322E4F5FF75D102E5D120E0FBE4F5D10A
:103B1B00F5FFEF51AEEE540F42D6E4F5FFCFEDCFEC
:103B2B008FD422E5F75406FFBF06037F0822E5F783
:103B3B005406FFBF04037F0422E5F75406FFBF02C0
:103B4B00037F02227F0122E51754F0C4540F2FFF8D
:103B5B00C3941040027F0FEF90057493FF227E10E9
:103B6B00EE60091EEE90057493B507F4EEC3940E48
:103B7B0040027E0DEE90056693FF22E4F514021EC3
:103B8B00E1C2AFEF4215D2AF22751401751A139033
:103B9B0003FCEFF09003EA7402F0ED90040A30E5B9
:103BAB0007E4F0A3743AF022E4F0A374E6F022C326
:103BBB009003F2E094FF9003F1E094FF5004E412C1
:103BCB0017EA2290040AE0A3E0FF229004A312124A
:103BDB00D99004A6EDF0E4A3F0ED54FE9004A6F00A
:103BEB00602BE4FF121EC0BF01239004A31212D05E
:103BFB0012253450189004A491239004A7E02402BA
:103C0B00F09004A7E0FF9004A6E06F70DD7F011237
:103C1B001EC09004A7E0FF22E475F002020FD07DD6
:103C2B000271D6EFC36001D3229004C9EFF0ED24EB
:103C3B00FE60191460262402703BEB2402FFE43A69
:103C4B00FE7C007D50120F337D60801E91A8C33324
:103C5B00CE33CED8F9FF7C007D28800E91A8C333DC
:103C6B00CE33CED8F9FF7C007D64120F459004CA89
:103C7B00EEF0A3EFF09004C9E091B3C083C08212C1
:103C8B0012469004CBE02401FF9004CAE03400FEFE
:103C9B00E4FCFD12107ED082D083021287EB24014C
:103CAB00FFE43AFEEF78032225E025E024FDF582C0
:103CBB00E43403F58322EF91B312122A021210E4BB
:103CCB00FFFEFDFC9003FD91DF90040191DF90045A
:103CDB0005021287121287E4FFFEFDFC22900739C2
:103CEB00E0F4FFA3E06FFFA3E06FFFA3E06FFF64BF
:103CFB00556009EF644A6004EFB40A010F9003E9C1
:103D0B00EFF022A2EB9251C2EB7A0379EF7B017DAC
:103D1B000CE4FF12086CA25192EB22A2EB9252C25E
:103D2B00EBEBC0E0EAC0E0E9C0E07A0379EFB14E1B
:103D3B00D0E0F9D0E0FAD0E0FB7F0C120899A25248
:103D4B0092EB227B01902E320212D9C003C002C02B
:103D5B00017A2E7914B14ED001D002D0037F02022A
:103D6B0008991233B3EF6401706AD116902FF3EFF9
:103D7B00F0D39402505E902E18E0FF902FF3E06F7B
:103D8B007052B1E0902FF4EFF07B017A2F79F47D34
:103D9B0001120BFF902FF3E02414F582E4342EF57F
:103DAB0083EFF0902E18E0045401F07027902E163C
:103DBB00E07002A3E0601D7B017A2E7912B1567B75
:103DCB00017A2E7912902E16E0FEA3E0FFF5828E7B
:103DDB008312141022E4FFE5F754C06002801675BD
:103DEB00FF01E5D530E30DD10550F4D100EF60EFC5
:103DFB00D10550EB22D10CAFD92275FF01E5E4338D
:103E0B002275FF01E4F5EA75EAFF22E5F454181375
:103E1B001313541FFF227F017E009017FCE4935E67
:103E2B00FE7401935F4E24FFB32290000174019343
:103E3B00B40007E493B41802C322D322902E16EEDB
:103E4B00F0A3EFF022EF7011ED600775FF0143AEA9
:103E5B00012275FF0153AEFE22EFB40110ED600796
:103E6B0075FF0143AE022275FF0153AEFD2275FFB4
:103E7B0002E5E630E2037F0322E5E630E3037F0051
:103E8B0022E5E630E1037F0422E5E67F0530E00220
:103E9B007F0122EF600775FF0253E6BF2275FF0219
:103EAB0043E64022EF14600F146014240270188B49
:103EBB008075FF018DFD228B9075FF018DC9228BC3
:103ECB00A075FF018DCA22AF038FB075FF01AF053F
:103EDB008FCB22902E1A1212D9EF14601114601886
:103EEB002402701EF118E580F11EE5FD801CF1180F
:103EFB00E590F11EE5C98012F118E5A0F11EE5CAA7
:103F0B008008F118E5B0F11EE5CB020EFF902E1DD7
:103F1B000212D0120EFF75FF01902E1A0212D0E47E
:103F2B00F5FFAF9122E4F5FFAF922243FB1075FF33
:103F3B000243E640EF600D75FF02E5E120E7FB432E
:103F4B00FB0D800343FB0E80FEEF30E00E43F401CC
:103F5B00E4F5FF43A404F5FF759624EF30E10E431F
:103F6B00F401E4F5FF43A408F5FF759624EF30E266
:103F7B000943F402E4F5FF75961EEF30E30943F4B1
:103F8B0004E4F5FF75961075FF01EF54036004759B
:103F9B00D7122275D72D22E4F5FF7584E6F5FF4382
:103FAB009404F5FF75981422CCEFCCCFEDCF7401B0
:103FBB007E00C8EFC8088005C333CE33CED8F9FFD7
:103FCB00CDECCDEF5D601B30551875FF0175DCAD89
:103FDB0075FF0175DDCDE4F5FF759A74F5FF7594EA
:103FEB00842275FF0175DC5375FF0175DD33E4F534
:103FFB00FF759A14F5FF75940422E4F5FF75933F52
:10400B0075FF03759A40123FA2E4F5FF759C93F57B
:10401B00FF75A1A3F5FF758531F5FF758628E5FAC8
:10402B0054304480F5FA75FF0175E74A75FF027548
:10403B00DF4975FF0143D30475FF0153D367E4F5E3
:10404B00FF53E6BF75FF0175D825F5FF75B503F571
:10405B00FF75B215F5FF75BA02F5FF75AFB3F5FF36
:10406B0075CD0AF5FF75CB08F5FF75CA12F5FF750F
:10407B00BF0EF5FF75CC96F5FFF5BDF5FF75C2814B
:10408B00F5FF75AEE1F5FF75DA55F5FF75F580F5C2
:10409B00FF75E903F5FF75E933F5FF75972A75FF92
:1040AB0001759B42759CA4759D29759E48759F242F
:1040BB0075A11275A312759AF820560CF5FF43964D
:1040CB008090120FE04440F02275FF0175E4657596
:1040DB00FF0175D64722902EDEEFF0E4A312267E69
:1040EB0078011211EA902EDEE0FB317412128790E8
:1040FB001210E064806071E0C3947F5039EB31742F
:10410B00C083C082122529FFEEC0E0EFC0E0901201
:10411B0010E075F004A4AEF0FBCAEECAEA3395E0EA
:10412B00F9F8D0E0FFD0E0FEC3EF9BFFEE9AFEED77
:10413B0099FDEC98802A902EDEE03174C083C0820A
:10414B003182901210E0F40475F004A4FFAEF0EE8F
:10415B003395E0FDFCEB2FFFEA3EFEE93DFDE83C2D
:10416B00FCD082D0831212872225E025E02401F5B2
:10417B0082E43412F58322E0F8A3E0F9A3E0FAA37A
:10418B00E0FB22EF600775FF0243E6102275FF028A
:10419B0053E6EF22E5ED30E2FB75ED04AFEF22E5E0
:1041AB00ED20E0FB8FEF22EF600443EC042253EC95
:1041BB00FB22EF600443EC082253ECF722E5ED54AD
:1041CB0002FF22E5ED5404FF22E5ED5401FF22E44A
:1041DB00F5FFEFF5D8E4F5FF53D60FEE540FC4F807
:1041EB0054F0C8E4C4540F4842D622E4F5FF8FD4F0
:1041FB0022E4F5FFE5D1540133333354F8FFE4F5F2
:10420B00FFE5D354074FFF22EF6004902D67F0902A
:10421B0003CDE0FF9003BD1212D01208EE9003CD38
:10422B00EFF0604E201F4B902D65E0C330E501D3BE
:10423B009223902D64E0902D6851921212D9902DFB
:10424B0066E090045BF0902D63E090045C519AF073
:10425B009003CDE0FBE4FF120BD7EF7029902D6795
:10426B007402F0902D61E0FEA3E0F5828E837F0255
:10427B008011902D67E0FF902D61E0FCA3E0FDF530
:10428B00828C8312141022FD1212D090045822F04B
:10429B00A37442F0A3741322902CAB1212D9902C5E
:1042AB00AAEFF0FE902CB57403F0902CB2E05437CB
:1042BB00F0E0FF5420902D65F0902D64EEF0902CE3
:1042CB00B3E0FDA3E0902D61CDF0A3EDF0902CAE0B
:1042DB001212D0902D681212D9902CB1E0902D664D
:1042EB00F0902CAB1212D09003BD1212D9EF4420D8
:1042FB00902D63F0E4902D67F0C21FF546902CAB28
:10430B001212D0AF461208EE8F46EF602A7D0312D1
:10431B000AD340E9902CB1E0D3941940037F0022DB
:10432B00AF46120ACE5008902CB57401F08008905D
:10433B002CB57402F080C6902CB1E0D3948240036C
:10434B007F00227F02120B4B902CB61212D9EA4936
:10435B004B6059902CAAE0FF902CB61212D0E92496
:10436B00B6F9E43AFAEF120EFF902CB2E0FE30E011
:10437B000FE49003CDF071BAEE6401A3519A80184B
:10438B0071BA902CB2E0900441F0902D61E0FDA346
:10439B00E0900442CDF0A3EDF0902CB671C8902CB8
:1043AB00AE1212D07D02120BCD7F01227F00229024
:1043BB002CB5E0FF902CB1E0900440F0221212D00B
:1043CB009004440212D9902D251212D9902D24EF6E
:1043DB00F0120AB04006902D24E54FF0902D24E00A
:1043EB00FF902D281212D0902CAE1212D9902D2B9B
:1043FB00E0902CB1F0902D2CE0902CB2F0902D2D64
:10440B00E0FDA3E0902CB3CDF0A3EDF0902D2512A1
:10441B0012D041A3E4FF3035037402FF22200005C4
:10442B00D215020A06C322903064E0701C7BFF7A1F
:10443B0004798E7D23120B697BFF7A0479777D17C4
:10444B00120B699030647401F02275FF01E58F54F3
:10445B0008FF22EFB4010775FF0143AE202275FF61
:10446B000153AEDF22EFB4010775FF014391202208
:10447B0075FF015391DF229400902E09F0A3CEF02B
:10448B007B007A00790022C20A7B007A00794F9078
:10449B002E8A1212D90B7A07793922902C38E054D4
:1044AB000F22E9240BF9E43AFA22FF1212D0EF02A1
:1044BB000EFF90073FE0FD75F0AA9007430212C470
:1044CB00FDEF4DFFE5F08FF002105F902CA0F07B1D
:1044DB00017A0379C2A30212D9EFF0A30212D97B9E
:1044EB00017D01120B877B0122F0A3F0A3F0A3F057
:1044FB00221212D0EA494B2224BDF9E43AFA22F9EE
:10450B00E43AFAEE020EFF7F02121FF3900737E038
:10451B0090073FF090073704F0C3940222EEF0A30C
:10452B00EFF0A3ECF0A3EDF0A322902E390212D9F9
:10453B001212D0E9240422900741E0FEA3E0FF12FF
:10454B0008D0D3EF94C8EE940022E4120EFF042996
:10455B00F9E43AFA221212D0E92405221212D002FF
:10456B000E401212D0C3E99FF9EA9EFA22D2227BA7
:10457B00017A0379B722E49003FBF07B017A04798B
:10458B00090208D53AFAE924FFF9EA34FF227B0144
:10459B00902E48F022E9242CF9E43AFA7440020EEA
:1045AB00FF1212D9020E40E0FFA3E0902CFFCFF0D8
:1045BB00A3EFF022FF8D828C83021410E0FFA30285
:1045CB0012D0E99582EA958322E9242DF9E43AFA8F
:1045DB007D04E4FF22F9E43AFA0212EE7D01120B9C
:1045EB00877B0122F9EC3AFA020E40AF03EAF0A303
:1045FB00EFF022E92420F9E43AFA22F0902918741A
:10460B0001F0222411F9E43AFA22F9E43AFA74029D
:10461B0022FDE4F0A3EDF022AF05F0A3EFF0227B37
:10462B00017A287933227A0379E47F0422240CF966
:10463B00E43AFA22FFE0FCA3E0FD2275F005A42486
:10464B00F3F9740022F9E43AFA7401227407F0E4E6
:10465B00A3F022F9E43AFAE4020EFF7B017A2E79F9
:10466B00DC7F0222740775F0D002105FE924FEF99B
:10467B00EA34FFFA22E0FF902836F07B0122E0902B
:10468B00045BF0A3EFF02235F0FEAF017B01227B40
:10469B0001E4FF02086CFFAEF054076403222DF512
:1046AB0082EA3CF583227438F0A3743CF022F0A329
:1046BB00EDF0E4A3F022E0FEA3E0FF7C0022F58204
:1046CB00E43403F58322902D9FF0A3EFF022FF54E7
:1046DB00F0C4540FFE227401F0AE04AF0522AA06FB
:1046EB00A90702140CE0FFA3E0FEC39F2290073939
:1046FB00E0C394C022F582E43EF583E02290120ED3
:05470B00E0D39401223F
:107F7E000200022B332FEC02043D022FEE301C00C8
:107F8E003304052202302138230807050522023862
:087F9E002838360013FF05220C
:107FB000FFFFFFFFFFFFFFFF7FC600000000000084
:067FC000000003080000B0
:10800000EF547024F0602624F0603C24F060522489
:10801000307067305A0B117E8002C333D8FC428027
:1080200022117E8002C333D8FCF4528022305A0BD6
:10803000117E8002C333D8FC429022117E8002C39D
:1080400033D8FCF4529022305A0B117E8002C33395
:10805000D8FC42A022117E8002C333D8FCF452A087
:1080600022305A0B117E8002C333D8FC42B0221159
:108070007E8002C333D8FCF452B02275FF01EF5466
:1080800007FF7401A8070822EF547024F06017243A
:10809000F0601E24F060252430702B117B8002C319
:1080A00033D8FC42FD22117B8002C333D8FC42C985
:1080B00022117B8002C333D8FC42CA22117B80028A
:1080C000C333D8FC42CB22EF547024F0601824F064
:1080D000602024F060282430702F117B8002C3338D
:1080E000D8FCF452FD22117B8002C333D8FCF45239
:1080F000C922117B8002C333D8FCF452CA22117BFF
:108100008002C333D8FCF452CB22902FA5EEF0A30B
:10811000EFF0A3EDF0E0FF14F0EF7002C32212F7CE
:10812000AB121E3AAD07306210902FA7E0117F808E
:1081300002C333D8FC4DFD800F902FA7E0117F8044
:1081400002C333D8FCF45DFD12F7AB02200E902879
:1081500092E0FF903043EFF0E536B54F03D3800156
:10816000C3500990304312A6A230E70F7E1F7FCA8A
:10817000903043E0FDD262310AC21A90282CE070A0
:108180000A0412F33E12E44312DFE22290304FEF72
:10819000F0C003C002C001A801AC02AD03D001D001
:1081A00002D0037E007F13120E1A902891E0121362
:1081B000E681DC01828802850403851A0484460571
:1081C000847A0684C707852708851A0985530B8595
:1081D000880C85720F854510000085B2E490286AEE
:1081E000F03028331244A66401702C902892E06489
:1081F000EF7017902897E020E71012BFC8600B902F
:108200002893E0FF12448B12EBE8902892E0B4EF41
:1082100006A3E0FF12D95FC22290304FE0C3700185
:10822000D3921BC206E4902833F09028917402F098
:108230009027C0E0FFB4030A902893E0902892F0C2
:10824000800FEF640160079027C0E0B4020312DEE4
:10825000D59027C0E07F06B403027F01902794EFFA
:10826000F0902896E0FE30E502D223B1C890045B7E
:108270007401F0EE12A16F90286AE0FFAD4F120B6F
:10828000D7EF6002A1B28117E49027EDF090304F54
:10829000E070026153902794E014F07015E07008CC
:1082A000301B0F12F878600A9027C0E0640160026A
:1082B0006153902794E0601D902896E0FF30E5021E
:1082C000D223B1C890045B740112A16D129894601E
:1082D00002A1B2811712F8786002615C902891F0D7
:1082E000902897E020E75F902893E0FF12D95F90F5
:1082F0002893E0FF7D0112D6C920170512BFC86080
:108300004A902893E0FF12448B12EBE8301A2B308E
:108310000C28E5366024654F602012BD8B902893B1
:10832000E0902835F09028917405B1C790045B74F3
:10833000091298856002A1B28117201A0E90289325
:10834000E0FF31538005E4902893F0902893E0FDFE
:10835000A38172C21B9027C0E0B40307E4FBFD7F3A
:1083600023A10112F8D76007EF64026002A1B29066
:108370002892E0FF12BF1890277AEFF0902892E041
:10838000FF12D24412EBE8902892E0FD12E58DFB3B
:108390007F2112E27B201A02811A300C7DE53660C3
:1083A00079902892E065366071E536654F606B9094
:1083B000277AE060079027C5E030E15E740612BBC3
:1083C000A7740D12E25A12F72D24FEFF1297E31242
:1083D00097DC7A28793612A950902837E020E10CF2
:1083E00012F71B12F6F91297DC12BFD112BCACE9DE
:1083F0004A7019902802F09028917406B1C790280D
:1084000064E0041298826002A1B2800B1297D1122C
:10841000BB8212A950314E02E247201A02314E129D
:10842000E49A6002A1B2902892E0FD12E58DFB7FF4
:108430002212E27B30170990277AE0600302F737B7
:10844000E4902892F02212F8037013902892E0FF33
:1084500012BB5330020AE5327002A1B28006314EDF
:10846000E532600612448B02F724902892E0FD90DA
:108470002894E024FBFB7F21A10112F803902892AD
:108480007007E0FF12BB538004E0FF315312AF14BA
:1084900050219028917407F090286312A2AC902884
:1084A00063B1B312987C6002A1B2902863E0FF31FF
:1084B00053803612E49A6002A1B2902892E0FD1235
:1084C000E58DFB7F22803A90304FE0701590289226
:1084D000E0FF12D38EEFD394024009E4902C38F0E1
:1084E0008002314E12AF14500BE412D9DCE4FDFCD3
:1084F000FF02BE2A1244A6700312DA9B12A7DF7F86
:108500002202E27B12BA1512F86E2406FEE43390C2
:108510002898F0A3CEF07F2F8028902898E4F0A32D
:108520007402F07F7C801B12BA1512F86E25E0FFF2
:10853000E433FEEF2407FFE43E902898F0A3EFF029
:108540007FB402DAA912A0F17E0A7F1FE4FB7D143A
:1085500002B84C90304FE070177C0A7D6A74141298
:10856000F863E4A3F012E480902832E070448015B0
:10857000801312F803700E12BB4E7C0A7D6512F751
:108580009EE4A3802102BD9C90304FE0701C902897
:1085900091740DF09027F37480F07C0A7D24743E72
:1085A00012F863A374FFF002E480E4902891F012C3
:1085B000BA6B22E0902835F09028337401F0A37450
:1085C0000EF0902836741DF07B017A2879339004E0
:1085D000580212D9902C9BEEF0A31244E4902CA0E8
:1085E000E0FF7401C39F4003029636902CA112AFA6
:1085F000CE902CA4F0E92401129642902CA6F09083
:108600002CA112963C902CA5F012304A40FB121778
:1086100081300D03029636902C9D12AFCEFFC3948D
:10862000204056EFD394FF5050902CA0E0FF949F31
:108630005047902CA4E030E70302963612963F9004
:108640002C3BF0902C9BE0FCA3E0AA04F97B01C03A
:1086500003C002C001A31212D0902D5A1212D99059
:108660002D5DEFF0902CA11212D0902D5E1212D938
:10867000D001D002D003020D21902C9D12AFCE6408
:10868000016003029636902CA4E030E60302963691
:10869000E924011296421213E6883F018D4E028DA5
:1086A0007F038F5B04900D058BB5068AEB078E5018
:1086B000088E9D098EF30A8F030B909E0D922F0E4C
:1086C0008F4E0F943C1092C81193BF1293311394A4
:1086D0009F1586EB1695C9198F0F1A879D1F880C59
:1086E0002096302288332300009636E536654F7099
:1086F0006E12DC4EEF70030296369027FC740BF07E
:10870000129639FF7B017A28797412A2B4D205122D
:108710009639FF12A03B129639FF9028921297E2E9
:1087200012BA1C9028967405F09027FA740AF0A3E8
:108730007429F09027C07402F0129639FF902CA68D
:10874000E0B5070CAD4F12EE9F12448BE4FF804A58
:1087500012963912F84912EE9F12F06102B84C904D
:10876000280EE020E003029636E5367003029636C6
:1087700012963990289212BBAA741612E25AB1C707
:1087800012E5D17405F0A3740AF0A374381298911D
:108790006003029636FBFAF97F0202E60112BBABD8
:1087A0007420F01296397054902835F0A304F0121A
:1087B00097BC129642FF33333354F8902CA7F090B5
:1087C0002C9D12181F902CA7129FE57025902CA7A6
:1087D00012BFCB601D902CA7E0FF12448B12EBE878
:1087E000902CA7E0FD12448BE4902EC8F07F20125D
:1087F0000D30902CA7E014F070C58005E490283669
:10880000F01285C812F258A30402961E9027FCE0CD
:10881000700302963612F6E61297BC129642B40125
:108820000B12E69312E6A2AD3012200E7D02AF3796
:108830000295C6E54064046006E4902865F0229045
:108840002CA0E0C39406E4940050030296369028CE
:1088500065E0FF60209027C0E0B40314902CA4E0F2
:1088600030E703029636902CA6E0FEEF6E600622FB
:10887000E4902865F01296395407C39403500A9087
:108880002C9D12181FE4120EFF1244A664017018EA
:108890003028151297BC1296425406FFBF020912E7
:1088A000F8BEC226C2284146300E02418890289167
:1088B000E06002418812F8B51297CB12D17A902C61
:1088C000A6E0FC902893F0902CA4E0902897F07FED
:1088D0001030E4027F00EF4401FF902CA4E0FE542E
:1088E000024F902896F012F87870491297CBE9243D
:1088F00001129642B4230EEE7F0070027F01EF302A
:10890000E40302963620120A9027C5E030E1030204
:10891000963620080A9027C5E020E103029636E447
:10892000902892F09027C5E07F0030E102AF0490DC
:108930002C3C21D91297CBE92401129642B4230191
:108940002212F8D76007EF64026002417920120A10
:108950009027C5E030E10302963620080A9027C52B
:10896000E020E10302963690278FE020E00C1245CC
:10897000781297DC12463112A950902CA6E0FF70B5
:1089800002414E300B0A9027C5E020E103029636E3
:10899000902CA4E020E7689027C0E0B40204C21243
:1089A000803A12F89050251244A66401702E902748
:1089B000C5E030E127202805EF64EF701F30280460
:1089C0007FEF800312BF7C902892800D902CA6E050
:1089D000B4EF0912BF7C902892EF806412F8ACFDCE
:1089E00012E58DFB12E26D60109028917402124422
:1089F0008AE4FF12818CD22422E4902891F0221282
:108A000044A6640160030296369027C5E020E10386
:108A100002963630280D12F8905008902CA774EF6B
:108A2000F08013902892E0700512F70380089028D8
:108A300092E0902CA7F0902CA7E0FF60069028927F
:108A4000F0802E12F8BE12448B7F01020C27902773
:108A5000C5E030E103029636902892E0FF600912EB
:108A6000BF18EF6006200B0312BF74902892E060DD
:108A70000302E1DDE4FBFDA14A902CA612E58590FE
:108A80002EC8F07F84020D30902891E0640D6003C1
:108A9000029636902CA6E0FF902780E06F600302DC
:108AA000963612F8B51297CB12D17A902896742187
:108AB000F012F8AC12D83312BB4EE49027EDF0D28E
:108AC00013902780E0FF902894E024F8FB7D0112AA
:108AD000E6E512E49F600302963612E58212F7681B
:108AE000120D30E4902891F002BA6B902891E0FFCB
:108AF00064036004EFB4080302A10C902C38E0FF7B
:108B000030E532129639FE902C3BE06E60030296FF
:108B100036300E0F902CA6E0FE902892E06E600397
:108B2000029636EF54DF902C38F030E70302963689
:108B3000E4FF020C3BE536654F6003029636902C4D
:108B4000A6E0653760030296363001030296369040
:108B500027FCE0FF64076005EF640A702412963971
:108B60006402701DD201FE7467253712E6A2121E40
:108B70003AEF543F04FD12E69312E6A212200E8053
:108B80002212F8F76008EF64096003029636129625
:108B900039FF6401600DEF64036008EF6405600352
:108BA00002963612F8F76008EF6407600302963603
:108BB000C261029479902891E0FF64046008EF6438
:108BC00009600302963612A0F1129639FD2403F5CE
:108BD00031902CA0E0C395315002A147300E0F1206
:108BE00097BCF9E43AFA12DFEFEF6002C214902862
:108BF00091E0B4090F902CA61297C9AC02AD0112F6
:108C0000A4738016902CA612A6A230E70D902CA675
:108C10001297C9AC02AD0112A6C2E4F53112963921
:108C2000FFE531C39F502B74A12531F582E4342830
:108C3000F583C083C082E01297BBF9E43AFAE531CC
:108C40007C00291245EFFEEF4ED082D083F0053133
:108C500080CB129639FF902919E0FEEFD39E400297
:108C6000EFF0E4FF12E4DBEF600122300E0320148A
:108C700037902CA6E0FD7B017A2879A17F1D12E0B8
:108C8000658F31EF7022902CA612A105600B300C7D
:108C900008902CA6E0FF1281537F22300E027F2322
:108CA00012F85012E27BC20EE4902891F012F8A361
:108CB000300C28E536654F6022E536601E902CA604
:108CC000E0902835F09029191246807A2879A1126F
:108CD00097DC7A28793712A950802830051DC20503
:108CE000902CA6E0FF12A29812453512CBF4601327
:108CF000D213902CA6E012E6E08008902CA6E0FFAC
:108D000012EBAD300E0830140512F850803C902C58
:108D1000A6E0FF12A06D9028917410F0E536601F58
:108D2000902CA6E0FF12D38EBF0414902CA6E0FF77
:108D30007C0A7D6F12EDA9500302963602A16512DE
:108D4000448BE4FF02818C12F8507F23E14B902C7E
:108D5000A5E0FF654F6017EFF46013A3E0FD12F785
:108D6000F14405FBE4902EF0F0A3F002D5CF902C57
:108D7000A6E0FF12F7F14405FDE4FBFA02D6549099
:108D80002CA0E0C394074003D38001C340030296A4
:108D900036902C38E020E402C11F200602C11F30AB
:108DA0000A15C20A7B007A00794F902E8A1212D9D6
:108DB0007A00790012AFF61296397007FBFAF9AF14
:108DC0004F800512448B7F0112EBE8C206902CA461
:108DD000E020E70E1297BC1227DD7F0412C959EF7D
:108DE000600312B74612F7D5129639F54F1297BCA9
:108DF000F9E43AFA1297DC1227E77F0412A950121D
:108E000027E7AD4F12B03D12F845120C54E54F6004
:108E10000302963612BFEF12D2447F0102EBE8E55F
:108E2000337003029636753201129639902863F03A
:108E3000700C902CA5E0FF600812EFB1800312D3F4
:108E40005F12448BE4FF12DB21902863E0F53522AA
:108E5000902C38E020E40302963620060302963672
:108E6000902CA0E0FFC3940350062019030296360D
:108E7000EFC394034021129639FF30E01AE540B465
:108E80000107EF30E103029636E540B40207EF3008
:108E9000E203029636D21C12F845020C59C20612A1
:108EA00097BC129642FFE4FD12EC931297CBE92493
:108EB0000512964230E12C1297BC129642FF902C7C
:108EC000A6E0FEB50708EE12E69EAD3080121297BE
:108ED000BC12964212E69EE5367DFFB54F02AD30DC
:108EE00012200E1244A6640660030296361297C63C
:108EF000020C5E1244A6640660030296361297C600
:108F0000020C63902CA6E0FF129639FD02D8BA122B
:108F1000F8C76008EF64146003029636129639545D
:108F20000F60231297BC129642902892F0FD7E2685
:108F30007FAA12200E902891E064146003029636F6
:108F4000F07F0102BE92E4FBFD7F2402E27B902CC5
:108F500038E020E403029636D22822300E0302962F
:108F6000361244A664017003029636C206300D0321
:108F7000029636902CA0E0D39422400302963690BD
:108F80002CA5E0654F600B75320212448BE4FF1292
:108F9000DB21E4F533D20D1297C61297DC12F88963
:108FA00012A95012EF9812F8EF2403FDE433FC905D
:108FB0002CA0E0FB7A00D39DEC121851400B749862
:108FC0002F12A025E09027EDF012F8EF2404FDE425
:108FD00033FCD3EB9DEC6480F8EA648098400F7416
:108FE000992FF582E43427F583E090282DF0902C1A
:108FF000A6E09027B612F7F044019027B7F0D23DD3
:109000009003B6E0902800F0E4FF029C00300E02CE
:10901000C1361244A664017002C1369027957401CE
:10902000F0A3740612F7F04401902CA8F090279753
:10903000E0700204F0902CA5E0654F6026E4F53264
:1090400012DF59902CA6E0FD12F889902797E024B2
:1090500004900473F0902CA812F837902CA5E0FF30
:10906000020BF59027EDE0FF902797E0FE12A0237A
:10907000EFF012F8891285CEEF7F0070027F01EECB
:109080002404C39F12F8DF12F829902CA6E0FB12EB
:1090900098946002C136FBFAF97F01029FF0D13942
:1090A000902CA9F07002C136902CA0E0FFC3940769
:1090B000E494005002C136EFD3942C4003742CF09A
:1090C000E490286AF09027FCE0FF600FE536B54F8A
:1090D0000A90286AEFF0E49027FCF09027FCE0600B
:1090E0000664036002C136F1CBE92406D142700266
:1090F00021CB90286AE0600312989D9027CA74FFE4
:10910000F0F1CBE92404D142FF20E2494404120EDD
:10911000FFF1BCF9E43AFAF1DCF1E37F047E0012DE
:10912000D74FF1E212D746902CA0E0FF24F9FDE4DE
:1091300034FFFCD3ED9400EC94004010EF24F9F1DF
:10914000CA12C703F1DC12D24B12A950902CA0E036
:109150002402F08034902CA0E024FDF1BBF9E43A25
:10916000FAF1DCF1E312D73E20E11EF1E312A8F39D
:10917000902CA0E024FAF1CA12AF4EF1DC12D5C84F
:1091800012A950902CA0E004F0902CA0E024F7F558
:1091900031C374239531FD74CA253112A81E902C59
:1091A000A9E0FF12D24412EBE812E6AA9027FCE0F5
:1091B000902CA9B4030D12F75A120D307F0112E55D
:1091C000B2806212F75A120D30805A902CA912BF49
:1091D000CB70189027FCE0B403047F0541B19028C0
:1091E0006AE07002C1369027FCF0229027FCE0B4C0
:1091F000030512F6E68005E49027FCF090286AE06B
:1092000060179027FC740EF090286AE537F0902CD8
:10921000A9E012F8CF7D03A1C6902CA9E0F5371282
:10922000D85312E6AA9027FCE06002C13641BCD1B7
:10923000397002C1369027FCE0FF64036005EF60DF
:1092400002C136F1BCD142FF902CA0E024FC6F603B
:1092500002C136F1CBE92402F9E43AFAF1DC7B01F0
:109260007A2879357F2112A950902836E0FF90287E
:1092700035E0FD12F70C12E0658F31EF700F90288A
:1092800035E0FF12A03B9027FCE070192212F8A3F2
:10929000902835E0FF12EBAD500312E6AA90283576
:1092A000E0FF12A06D9027FCE0B4030812F6E67F01
:1092B0000202E5B29027FCE06002C13612F6DD90B2
:1092C00027F3741FF002DFC0902CA0E0FFD39404BA
:1092D0004002C136EFC394035002C136902CA6124F
:1092E000BFCB600B902CA6129FA220E102C136D109
:1092F00039FF12BF18EF600CD139FF129FA8EF2081
:10930000E102C136D139F1F912F7F84011F1BCD1BF
:109310004230E006D217D20C8004A210920CE5363F
:10932000B54F0312EF8512D95312448BE4FF02E9C3
:109330003C9027FCE064066002C136D137605BE4F4
:10934000F531902835E06019853631902CA6E0F58E
:109350003612F7F84015F1BCD14230E00ED217803A
:109360000A902CA6E0B5360312F87FF1EA12448B7E
:10937000E4FF12E93C9027BE1216E66003122E9419
